{
  "transactions": [
    {
      "hash": "0xf38e5e8197aa1283686ce1ee81883cad2ff3202e8b80e86eecf3a45072f7fa61",
      "transactionType": "CALL",
      "contractName": null,
      "contractAddress": "0xd697D2af3ddfe4Ed24e92A230C4B93606B5d05fB",
      "function": null,
      "arguments": null,
      "transaction": {
        "type": "0x02",
        "from": "0x255e26065387de09436db52acc4ae2a3cd11e854",
        "to": "0xd697d2af3ddfe4ed24e92a230c4b93606b5d05fb",
        "gas": "0x8acc",
        "value": "0x0",
        "data": "0x01fa5d560000000000000000000000001111111254eeb25477b68fb85ed929f73a960582",
        "nonce": "0xc",
        "accessList": []
      },
      "additionalContracts": [],
      "isFixedGasLimit": false
    },
    {
      "hash": "0xd4ec45aa15eb9f2f36bdf48107c898fcd3e618816c0112f2830d08382cbc6007",
      "transactionType": "CALL",
      "contractName": null,
      "contractAddress": "0xd697D2af3ddfe4Ed24e92A230C4B93606B5d05fB",
      "function": null,
      "arguments": null,
      "transaction": {
        "type": "0x02",
        "from": "0x255e26065387de09436db52acc4ae2a3cd11e854",
        "to": "0xd697d2af3ddfe4ed24e92a230c4b93606b5d05fb",
        "gas": "0xb969",
        "value": "0x0",
        "data": "0xba72467e0000000000000000000000006b175474e89094c44da98b954eedeac495271d0f0000000000000000000000001111111254eeb25477b68fb85ed929f73a960582",
        "nonce": "0xd",
        "accessList": []
      },
      "additionalContracts": [],
      "isFixedGasLimit": false
    },
    {
      "hash": "0x5f1d3522720fd4ffe1dcf992074c0d990cc2666dd1e88ddc27dc2356e7a1ad5e",
      "transactionType": "CALL",
      "contractName": null,
      "contractAddress": "0xd697D2af3ddfe4Ed24e92A230C4B93606B5d05fB",
      "function": null,
      "arguments": null,
      "transaction": {
        "type": "0x02",
        "from": "0x255e26065387de09436db52acc4ae2a3cd11e854",
        "to": "0xd697d2af3ddfe4ed24e92a230c4b93606b5d05fb",
        "gas": "0x11376",
        "value": "0x0",
        "data": "0xba72467e000000000000000000000000a0b86991c6218b36c1d19d4a2e9eb0ce3606eb480000000000000000000000001111111254eeb25477b68fb85ed929f73a960582",
        "nonce": "0xe",
        "accessList": []
      },
      "additionalContracts": [],
      "isFixedGasLimit": false
    },
    {
      "hash": "0x97d59903e4cdc1dd02a21090785a88831aee73fb3aa8a2cf83f109238cccdb42",
      "transactionType": "CALL",
      "contractName": null,
      "contractAddress": "0xd697D2af3ddfe4Ed24e92A230C4B93606B5d05fB",
      "function": null,
      "arguments": null,
      "transaction": {
        "type": "0x02",
        "from": "0x255e26065387de09436db52acc4ae2a3cd11e854",
        "to": "0xd697d2af3ddfe4ed24e92a230c4b93606b5d05fb",
        "gas": "0xfb3d",
        "value": "0x0",
        "data": "0xba72467e000000000000000000000000dac17f958d2ee523a2206206994597c13d831ec70000000000000000000000001111111254eeb25477b68fb85ed929f73a960582",
        "nonce": "0xf",
        "accessList": []
      },
      "additionalContracts": [],
      "isFixedGasLimit": false
    },
    {
      "hash": "0xf5e5ee25454d7f186c3dbe47ab15ec3e315c1b633c14c0671a3310bdbdcfdc99",
      "transactionType": "CALL",
      "contractName": null,
      "contractAddress": "0xd697D2af3ddfe4Ed24e92A230C4B93606B5d05fB",
      "function": null,
      "arguments": null,
      "transaction": {
        "type": "0x02",
        "from": "0x255e26065387de09436db52acc4ae2a3cd11e854",
        "to": "0xd697d2af3ddfe4ed24e92a230c4b93606b5d05fb",
        "gas": "0xb8e7",
        "value": "0x0",
        "data": "0xba72467e000000000000000000000000c02aaa39b223fe8d0a0e5c4f27ead9083c756cc20000000000000000000000001111111254eeb25477b68fb85ed929f73a960582",
        "nonce": "0x10",
        "accessList": []
      },
      "additionalContracts": [],
      "isFixedGasLimit": false
    },
    {
      "hash": "0x81154bd6e1f1448313ecedf0d4dd15ad37898857a0d63813ae174ae8d5036380",
      "transactionType": "CALL",
      "contractName": null,
      "contractAddress": "0xd697D2af3ddfe4Ed24e92A230C4B93606B5d05fB",
      "function": null,
      "arguments": null,
      "transaction": {
        "type": "0x02",
        "from": "0x255e26065387de09436db52acc4ae2a3cd11e854",
        "to": "0xd697d2af3ddfe4ed24e92a230c4b93606b5d05fb",
        "gas": "0x1a349",
        "value": "0x0",
        "data": "0xba72467e000000000000000000000000ae7ab96520de3a18e5e111b5eaab095312d7fe840000000000000000000000001111111254eeb25477b68fb85ed929f73a960582",
        "nonce": "0x11",
        "accessList": []
      },
      "additionalContracts": [],
      "isFixedGasLimit": false
    },
    {
      "hash": "0xbe7426c89d3aa63563cf985749a913156ea7f21544dfdb7cf6749f3b43d2242c",
      "transactionType": "CALL",
      "contractName": null,
      "contractAddress": "0xd697D2af3ddfe4Ed24e92A230C4B93606B5d05fB",
      "function": null,
      "arguments": null,
      "transaction": {
        "type": "0x02",
        "from": "0x255e26065387de09436db52acc4ae2a3cd11e854",
        "to": "0xd697d2af3ddfe4ed24e92a230c4b93606b5d05fb",
        "gas": "0x142a2",
        "value": "0x0",
        "data": "0xba72467e0000000000000000000000002260fac5e5542a773aa44fbcfedf7c193bc2c5990000000000000000000000001111111254eeb25477b68fb85ed929f73a960582",
        "nonce": "0x12",
        "accessList": []
      },
      "additionalContracts": [],
      "isFixedGasLimit": false
    },
    {
      "hash": "0xcda6adb63784462ae65e7d0bc46ab8696721008fb99842830869dd16dbb60929",
      "transactionType": "CALL",
      "contractName": null,
      "contractAddress": "0xd697D2af3ddfe4Ed24e92A230C4B93606B5d05fB",
      "function": null,
      "arguments": null,
      "transaction": {
        "type": "0x02",
        "from": "0x255e26065387de09436db52acc4ae2a3cd11e854",
        "to": "0xd697d2af3ddfe4ed24e92a230c4b93606b5d05fb",
        "gas": "0x1b8db",
        "value": "0x0",
        "data": "0x063e5eb70000000000000000000000002791eb5807d69fe10c02eed6b4dc12bac0701744",
        "nonce": "0x13",
        "accessList": []
      },
      "additionalContracts": [],
      "isFixedGasLimit": false
    },
    {
      "hash": "0x978ccbb1cd9d3310a3a5dbc411e6672a0168660712fd190d6c5424d16a974405",
      "transactionType": "CALL",
      "contractName": null,
      "contractAddress": "0xd697D2af3ddfe4Ed24e92A230C4B93606B5d05fB",
      "function": "transferOwnership(address)",
      "arguments": [
        "0x32B0aCfBb18C270491CDD124EB104A8d25A182ca"
      ],
      "transaction": {
        "type": "0x02",
        "from": "0x255e26065387de09436db52acc4ae2a3cd11e854",
        "to": "0xd697d2af3ddfe4ed24e92a230c4b93606b5d05fb",
        "gas": "0x1112c",
        "value": "0x0",
        "data": "0xf2fde38b00000000000000000000000032b0acfbb18c270491cdd124eb104a8d25a182ca",
        "nonce": "0x14",
        "accessList": []
      },
      "additionalContracts": [],
      "isFixedGasLimit": false
    }
  ],
  "receipts": [
    {
      "transactionHash": "0xf38e5e8197aa1283686ce1ee81883cad2ff3202e8b80e86eecf3a45072f7fa61",
      "transactionIndex": "0x2e",
      "blockHash": "0x640d180255a923e820c277574f7cd541ea8ce0b86f6bc5310860ddf59790d602",
      "blockNumber": "0x11ad6f4",
      "from": "0x255e26065387de09436DB52AcC4aE2a3CD11E854",
      "to": "0xd697D2af3ddfe4Ed24e92A230C4B93606B5d05fB",
      "cumulativeGasUsed": "0x440869",
      "gasUsed": "0x647e",
      "contractAddress": null,
      "logs": [
        {
          "address": "0xd697D2af3ddfe4Ed24e92A230C4B93606B5d05fB",
          "topics": [
            "0xd166590f22562bbdf8cfae03171c96fab89b02f3a8705085704575bb3b795cbd",
            "0x0000000000000000000000001111111254eeb25477b68fb85ed929f73a960582"
          ],
          "data": "0x0000000000000000000000000000000000000000000000000000000000000000",
          "blockHash": "0x640d180255a923e820c277574f7cd541ea8ce0b86f6bc5310860ddf59790d602",
          "blockNumber": "0x11ad6f4",
          "transactionHash": "0xf38e5e8197aa1283686ce1ee81883cad2ff3202e8b80e86eecf3a45072f7fa61",
          "transactionIndex": "0x2e",
          "logIndex": "0x8a",
          "removed": false
        }
      ],
      "status": "0x1",
      "logsBloom": "0x00000000000000000000000000100000000000000000000000000000000000000000000000000001000000000000000000000010000000000000000002000000000000000000080000000000000000000000000000000000000000000000000000000000000000000000000000000000000000000000000000000000000000000000000000000000000000000000000000080000000000000000000000000000000000000000000000000000000004000000000000000000000000000000000000000000000000000000000000000000000000000000000000000000000000000000000000000000000400000000000000000000000800000000000000000000",
      "type": "0x2",
      "effectiveGasPrice": "0xc7bc9f3d7"
    },
    {
      "transactionHash": "0xd4ec45aa15eb9f2f36bdf48107c898fcd3e618816c0112f2830d08382cbc6007",
      "transactionIndex": "0x2f",
      "blockHash": "0x640d180255a923e820c277574f7cd541ea8ce0b86f6bc5310860ddf59790d602",
      "blockNumber": "0x11ad6f4",
      "from": "0x255e26065387de09436DB52AcC4aE2a3CD11E854",
      "to": "0xd697D2af3ddfe4Ed24e92A230C4B93606B5d05fB",
      "cumulativeGasUsed": "0x448ea6",
      "gasUsed": "0x863d",
      "contractAddress": null,
      "logs": [
        {
          "address": "0x6B175474E89094C44Da98b954EedeAC495271d0F",
          "topics": [
            "0x8c5be1e5ebec7d5bd14f71427d1e84f3dd0314c0f7b2291e5b200ac8c7c3b925",
            "0x000000000000000000000000d697d2af3ddfe4ed24e92a230c4b93606b5d05fb",
            "0x0000000000000000000000001111111254eeb25477b68fb85ed929f73a960582"
          ],
          "data": "0xffffffffffffffffffffffffffffffffffffffffffffffffffffffffffffffff",
          "blockHash": "0x640d180255a923e820c277574f7cd541ea8ce0b86f6bc5310860ddf59790d602",
          "blockNumber": "0x11ad6f4",
          "transactionHash": "0xd4ec45aa15eb9f2f36bdf48107c898fcd3e618816c0112f2830d08382cbc6007",
          "transactionIndex": "0x2f",
          "logIndex": "0x8b",
          "removed": false
        },
        {
          "address": "0xd697D2af3ddfe4Ed24e92A230C4B93606B5d05fB",
          "topics": [
            "0xd6e8a8fc052939c88e845bbe596b2de2a07139e2fdeeed39548f594b82caaef0",
            "0x0000000000000000000000001111111254eeb25477b68fb85ed929f73a960582",
            "0x0000000000000000000000006b175474e89094c44da98b954eedeac495271d0f"
          ],
          "data": "0x",
          "blockHash": "0x640d180255a923e820c277574f7cd541ea8ce0b86f6bc5310860ddf59790d602",
          "blockNumber": "0x11ad6f4",
          "transactionHash": "0xd4ec45aa15eb9f2f36bdf48107c898fcd3e618816c0112f2830d08382cbc6007",
          "transactionIndex": "0x2f",
          "logIndex": "0x8c",
          "removed": false
        }
      ],
      "status": "0x1",
      "logsBloom": "0x00000000000000000040000000100000000000000000000000000000000000000000000000000000000000000000000000000010000000000000000000200000000000000000080000000008000000000000000000000000000002000000000010000000000000000000000000000000000000000000000001000000000000200000000000000000000000000000000000080000000000000000000400000000020000000000000000000000000004000000000000000000000000000000000000000000000000002000000000000000000002000000000000000000000000000010000000000000000400000000000000000000000000100800000000000000",
      "type": "0x2",
      "effectiveGasPrice": "0xc7bc9f3d7"
    },
    {
      "transactionHash": "0x5f1d3522720fd4ffe1dcf992074c0d990cc2666dd1e88ddc27dc2356e7a1ad5e",
      "transactionIndex": "0x30",
      "blockHash": "0x640d180255a923e820c277574f7cd541ea8ce0b86f6bc5310860ddf59790d602",
      "blockNumber": "0x11ad6f4",
      "from": "0x255e26065387de09436DB52AcC4aE2a3CD11E854",
      "to": "0xd697D2af3ddfe4Ed24e92A230C4B93606B5d05fB",
      "cumulativeGasUsed": "0x454b00",
      "gasUsed": "0xbc5a",
      "contractAddress": null,
      "logs": [
        {
          "address": "0xA0b86991c6218b36c1d19D4a2e9Eb0cE3606eB48",
          "topics": [
            "0x8c5be1e5ebec7d5bd14f71427d1e84f3dd0314c0f7b2291e5b200ac8c7c3b925",
            "0x000000000000000000000000d697d2af3ddfe4ed24e92a230c4b93606b5d05fb",
            "0x0000000000000000000000001111111254eeb25477b68fb85ed929f73a960582"
          ],
          "data": "0xffffffffffffffffffffffffffffffffffffffffffffffffffffffffffffffff",
          "blockHash": "0x640d180255a923e820c277574f7cd541ea8ce0b86f6bc5310860ddf59790d602",
          "blockNumber": "0x11ad6f4",
          "transactionHash": "0x5f1d3522720fd4ffe1dcf992074c0d990cc2666dd1e88ddc27dc2356e7a1ad5e",
          "transactionIndex": "0x30",
          "logIndex": "0x8d",
          "removed": false
        },
        {
          "address": "0xd697D2af3ddfe4Ed24e92A230C4B93606B5d05fB",
          "topics": [
            "0xd6e8a8fc052939c88e845bbe596b2de2a07139e2fdeeed39548f594b82caaef0",
            "0x0000000000000000000000001111111254eeb25477b68fb85ed929f73a960582",
            "0x000000000000000000000000a0b86991c6218b36c1d19d4a2e9eb0ce3606eb48"
          ],
          "data": "0x",
          "blockHash": "0x640d180255a923e820c277574f7cd541ea8ce0b86f6bc5310860ddf59790d602",
          "blockNumber": "0x11ad6f4",
          "transactionHash": "0x5f1d3522720fd4ffe1dcf992074c0d990cc2666dd1e88ddc27dc2356e7a1ad5e",
          "transactionIndex": "0x30",
          "logIndex": "0x8e",
          "removed": false
        }
      ],
      "status": "0x1",
      "logsBloom": "0x00000000000000000040000000100000000000000000000000000000000000000000000000000000000002000000000000000010000000000000000000200000000000000000080008000000000000000000000000000000000002000000000000000000000000000000000000000000000000000000000001000000000000000000000000000000000000000000000200080000010000000000000000000000020000000000200000000000000004000000000000000000000000000000000000000000000000002000000000000000000000000000000000000000000000000010000000000000000400000000000004000000000000000800000000000000",
      "type": "0x2",
      "effectiveGasPrice": "0xc7bc9f3d7"
    },
    {
      "transactionHash": "0x97d59903e4cdc1dd02a21090785a88831aee73fb3aa8a2cf83f109238cccdb42",
      "transactionIndex": "0x31",
      "blockHash": "0x640d180255a923e820c277574f7cd541ea8ce0b86f6bc5310860ddf59790d602",
      "blockNumber": "0x11ad6f4",
      "from": "0x255e26065387de09436DB52AcC4aE2a3CD11E854",
      "to": "0xd697D2af3ddfe4Ed24e92A230C4B93606B5d05fB",
      "cumulativeGasUsed": "0x4600e5",
      "gasUsed": "0xb5e5",
      "contractAddress": null,
      "logs": [
        {
          "address": "0xdAC17F958D2ee523a2206206994597C13D831ec7",
          "topics": [
            "0x8c5be1e5ebec7d5bd14f71427d1e84f3dd0314c0f7b2291e5b200ac8c7c3b925",
            "0x000000000000000000000000d697d2af3ddfe4ed24e92a230c4b93606b5d05fb",
            "0x0000000000000000000000001111111254eeb25477b68fb85ed929f73a960582"
          ],
          "data": "0x0000000000000000000000000000000000000000000000000000000000000000",
          "blockHash": "0x640d180255a923e820c277574f7cd541ea8ce0b86f6bc5310860ddf59790d602",
          "blockNumber": "0x11ad6f4",
          "transactionHash": "0x97d59903e4cdc1dd02a21090785a88831aee73fb3aa8a2cf83f109238cccdb42",
          "transactionIndex": "0x31",
          "logIndex": "0x8f",
          "removed": false
        },
        {
          "address": "0xdAC17F958D2ee523a2206206994597C13D831ec7",
          "topics": [
            "0x8c5be1e5ebec7d5bd14f71427d1e84f3dd0314c0f7b2291e5b200ac8c7c3b925",
            "0x000000000000000000000000d697d2af3ddfe4ed24e92a230c4b93606b5d05fb",
            "0x0000000000000000000000001111111254eeb25477b68fb85ed929f73a960582"
          ],
          "data": "0xffffffffffffffffffffffffffffffffffffffffffffffffffffffffffffffff",
          "blockHash": "0x640d180255a923e820c277574f7cd541ea8ce0b86f6bc5310860ddf59790d602",
          "blockNumber": "0x11ad6f4",
          "transactionHash": "0x97d59903e4cdc1dd02a21090785a88831aee73fb3aa8a2cf83f109238cccdb42",
          "transactionIndex": "0x31",
          "logIndex": "0x90",
          "removed": false
        },
        {
          "address": "0xd697D2af3ddfe4Ed24e92A230C4B93606B5d05fB",
          "topics": [
            "0xd6e8a8fc052939c88e845bbe596b2de2a07139e2fdeeed39548f594b82caaef0",
            "0x0000000000000000000000001111111254eeb25477b68fb85ed929f73a960582",
            "0x000000000000000000000000dac17f958d2ee523a2206206994597c13d831ec7"
          ],
          "data": "0x",
          "blockHash": "0x640d180255a923e820c277574f7cd541ea8ce0b86f6bc5310860ddf59790d602",
          "blockNumber": "0x11ad6f4",
          "transactionHash": "0x97d59903e4cdc1dd02a21090785a88831aee73fb3aa8a2cf83f109238cccdb42",
          "transactionIndex": "0x31",
          "logIndex": "0x91",
          "removed": false
        }
      ],
      "status": "0x1",
      "logsBloom": "0x00000000000000000040000000100000000000000000000000000000000000000000000000000000000000000000010000000010000000000000000000200000000000000000080000000000000000000000000000000000000002000000000000000000000000000000000000000000000000200000000001000000000000000000000000000000000000000000000000080000000000000000000000100000020000000000000000000080000004000000000000000000000000000000004000000000000000002000000000000000000000020000000000000000000000000010000000000000000400000000000000000000000000000800000000000000",
      "type": "0x2",
      "effectiveGasPrice": "0xc7bc9f3d7"
    },
    {
      "transactionHash": "0xf5e5ee25454d7f186c3dbe47ab15ec3e315c1b633c14c0671a3310bdbdcfdc99",
      "transactionIndex": "0x32",
      "blockHash": "0x640d180255a923e820c277574f7cd541ea8ce0b86f6bc5310860ddf59790d602",
      "blockNumber": "0x11ad6f4",
      "from": "0x255e26065387de09436DB52AcC4aE2a3CD11E854",
      "to": "0xd697D2af3ddfe4Ed24e92A230C4B93606B5d05fB",
      "cumulativeGasUsed": "0x4686c4",
      "gasUsed": "0x85df",
      "contractAddress": null,
      "logs": [
        {
          "address": "0xC02aaA39b223FE8D0A0e5C4F27eAD9083C756Cc2",
          "topics": [
            "0x8c5be1e5ebec7d5bd14f71427d1e84f3dd0314c0f7b2291e5b200ac8c7c3b925",
            "0x000000000000000000000000d697d2af3ddfe4ed24e92a230c4b93606b5d05fb",
            "0x0000000000000000000000001111111254eeb25477b68fb85ed929f73a960582"
          ],
          "data": "0xffffffffffffffffffffffffffffffffffffffffffffffffffffffffffffffff",
          "blockHash": "0x640d180255a923e820c277574f7cd541ea8ce0b86f6bc5310860ddf59790d602",
          "blockNumber": "0x11ad6f4",
          "transactionHash": "0xf5e5ee25454d7f186c3dbe47ab15ec3e315c1b633c14c0671a3310bdbdcfdc99",
          "transactionIndex": "0x32",
          "logIndex": "0x92",
          "removed": false
        },
        {
          "address": "0xd697D2af3ddfe4Ed24e92A230C4B93606B5d05fB",
          "topics": [
            "0xd6e8a8fc052939c88e845bbe596b2de2a07139e2fdeeed39548f594b82caaef0",
            "0x0000000000000000000000001111111254eeb25477b68fb85ed929f73a960582",
            "0x000000000000000000000000c02aaa39b223fe8d0a0e5c4f27ead9083c756cc2"
          ],
          "data": "0x",
          "blockHash": "0x640d180255a923e820c277574f7cd541ea8ce0b86f6bc5310860ddf59790d602",
          "blockNumber": "0x11ad6f4",
          "transactionHash": "0xf5e5ee25454d7f186c3dbe47ab15ec3e315c1b633c14c0671a3310bdbdcfdc99",
          "transactionIndex": "0x32",
          "logIndex": "0x93",
          "removed": false
        }
      ],
      "status": "0x1",
      "logsBloom": "0x00000000000000000040000000100000000000000000000000000000000000000000000000000000000000000000000002000010080000000000000000200000000000000000080000000000000000800000000000000000000002000000000000000000000000000000000000000000000000000000000001000000000000000000000000000000000000400000000000080000000000000000000000000000020000000000000000000000000004000000000000000000000000000000000000000000000000002000000000080000000000000000000000000000000000000010200000000000000400000000000000000000000000000800000000000000",
      "type": "0x2",
      "effectiveGasPrice": "0xc7bc9f3d7"
    },
    {
      "transactionHash": "0x81154bd6e1f1448313ecedf0d4dd15ad37898857a0d63813ae174ae8d5036380",
      "transactionIndex": "0x33",
      "blockHash": "0x640d180255a923e820c277574f7cd541ea8ce0b86f6bc5310860ddf59790d602",
      "blockNumber": "0x11ad6f4",
      "from": "0x255e26065387de09436DB52AcC4aE2a3CD11E854",
      "to": "0xd697D2af3ddfe4Ed24e92A230C4B93606B5d05fB",
      "cumulativeGasUsed": "0x47a575",
      "gasUsed": "0x11eb1",
      "contractAddress": null,
      "logs": [
        {
          "address": "0xae7ab96520DE3A18E5e111B5EaAb095312D7fE84",
          "topics": [
            "0x8c5be1e5ebec7d5bd14f71427d1e84f3dd0314c0f7b2291e5b200ac8c7c3b925",
            "0x000000000000000000000000d697d2af3ddfe4ed24e92a230c4b93606b5d05fb",
            "0x0000000000000000000000001111111254eeb25477b68fb85ed929f73a960582"
          ],
          "data": "0xffffffffffffffffffffffffffffffffffffffffffffffffffffffffffffffff",
          "blockHash": "0x640d180255a923e820c277574f7cd541ea8ce0b86f6bc5310860ddf59790d602",
          "blockNumber": "0x11ad6f4",
          "transactionHash": "0x81154bd6e1f1448313ecedf0d4dd15ad37898857a0d63813ae174ae8d5036380",
          "transactionIndex": "0x33",
          "logIndex": "0x94",
          "removed": false
        },
        {
          "address": "0xd697D2af3ddfe4Ed24e92A230C4B93606B5d05fB",
          "topics": [
            "0xd6e8a8fc052939c88e845bbe596b2de2a07139e2fdeeed39548f594b82caaef0",
            "0x0000000000000000000000001111111254eeb25477b68fb85ed929f73a960582",
            "0x000000000000000000000000ae7ab96520de3a18e5e111b5eaab095312d7fe84"
          ],
          "data": "0x",
          "blockHash": "0x640d180255a923e820c277574f7cd541ea8ce0b86f6bc5310860ddf59790d602",
          "blockNumber": "0x11ad6f4",
          "transactionHash": "0x81154bd6e1f1448313ecedf0d4dd15ad37898857a0d63813ae174ae8d5036380",
          "transactionIndex": "0x33",
          "logIndex": "0x95",
          "removed": false
        }
      ],
      "status": "0x1",
      "logsBloom": "0x00000100000000000040000000100000000000000000000000000000000000000000000000000000000000000000000000000010000000000000000000200000000000000000080000000000000000100000000000000000000002000000000000000000000000000000000000200000000000000000000001000000000000000000000000000000000000000000000000080000000000000000000000000000020000000000000000000000800204000000000000000000000000000000000000000000000000002000000000000000000000000000000000000000000000000010000000000000000400000000000000800000000000000800000000000000",
      "type": "0x2",
      "effectiveGasPrice": "0xc7bc9f3d7"
    },
    {
      "transactionHash": "0xbe7426c89d3aa63563cf985749a913156ea7f21544dfdb7cf6749f3b43d2242c",
      "transactionIndex": "0x34",
      "blockHash": "0x640d180255a923e820c277574f7cd541ea8ce0b86f6bc5310860ddf59790d602",
      "blockNumber": "0x11ad6f4",
      "from": "0x255e26065387de09436DB52AcC4aE2a3CD11E854",
      "to": "0xd697D2af3ddfe4Ed24e92A230C4B93606B5d05fB",
      "cumulativeGasUsed": "0x488210",
      "gasUsed": "0xdc9b",
      "contractAddress": null,
      "logs": [
        {
          "address": "0x2260FAC5E5542a773Aa44fBCfeDf7C193bc2C599",
          "topics": [
            "0x8c5be1e5ebec7d5bd14f71427d1e84f3dd0314c0f7b2291e5b200ac8c7c3b925",
            "0x000000000000000000000000d697d2af3ddfe4ed24e92a230c4b93606b5d05fb",
            "0x0000000000000000000000001111111254eeb25477b68fb85ed929f73a960582"
          ],
          "data": "0xffffffffffffffffffffffffffffffffffffffffffffffffffffffffffffffff",
          "blockHash": "0x640d180255a923e820c277574f7cd541ea8ce0b86f6bc5310860ddf59790d602",
          "blockNumber": "0x11ad6f4",
          "transactionHash": "0xbe7426c89d3aa63563cf985749a913156ea7f21544dfdb7cf6749f3b43d2242c",
          "transactionIndex": "0x34",
          "logIndex": "0x96",
          "removed": false
        },
        {
          "address": "0xd697D2af3ddfe4Ed24e92A230C4B93606B5d05fB",
          "topics": [
            "0xd6e8a8fc052939c88e845bbe596b2de2a07139e2fdeeed39548f594b82caaef0",
            "0x0000000000000000000000001111111254eeb25477b68fb85ed929f73a960582",
            "0x0000000000000000000000002260fac5e5542a773aa44fbcfedf7c193bc2c599"
          ],
          "data": "0x",
          "blockHash": "0x640d180255a923e820c277574f7cd541ea8ce0b86f6bc5310860ddf59790d602",
          "blockNumber": "0x11ad6f4",
          "transactionHash": "0xbe7426c89d3aa63563cf985749a913156ea7f21544dfdb7cf6749f3b43d2242c",
          "transactionIndex": "0x34",
          "logIndex": "0x97",
          "removed": false
        }
      ],
      "status": "0x1",
      "logsBloom": "0x00000000000000000040000020100000000000000000000000000000000000008000000000000000000000000000000000000010000000000000000000200000000000000000080000000000000000000000000000000000000002000000000000000000000000000000000000000000020000000000000001000000000000000000000000000000000000000000000000080000000000000000000000000000030000000000000000000000000004000000000000000000000000000000000000000000000000002000000000000000000000000004000000000000000000000010000000000000000400000000000000200000000000000800000000000000",
      "type": "0x2",
      "effectiveGasPrice": "0xc7bc9f3d7"
    },
    {
      "transactionHash": "0xcda6adb63784462ae65e7d0bc46ab8696721008fb99842830869dd16dbb60929",
      "transactionIndex": "0x35",
      "blockHash": "0x640d180255a923e820c277574f7cd541ea8ce0b86f6bc5310860ddf59790d602",
      "blockNumber": "0x11ad6f4",
      "from": "0x255e26065387de09436DB52AcC4aE2a3CD11E854",
      "to": "0xd697D2af3ddfe4Ed24e92A230C4B93606B5d05fB",
      "cumulativeGasUsed": "0x49c13d",
      "gasUsed": "0x13f2d",
      "contractAddress": null,
      "logs": [
        {
          "address": "0x7f39C581F595B53c5cb19bD0b3f8dA6c935E2Ca0",
          "topics": [
            "0x8c5be1e5ebec7d5bd14f71427d1e84f3dd0314c0f7b2291e5b200ac8c7c3b925",
            "0x000000000000000000000000d697d2af3ddfe4ed24e92a230c4b93606b5d05fb",
            "0x0000000000000000000000002791eb5807d69fe10c02eed6b4dc12bac0701744"
          ],
          "data": "0xffffffffffffffffffffffffffffffffffffffffffffffffffffffffffffffff",
          "blockHash": "0x640d180255a923e820c277574f7cd541ea8ce0b86f6bc5310860ddf59790d602",
          "blockNumber": "0x11ad6f4",
          "transactionHash": "0xcda6adb63784462ae65e7d0bc46ab8696721008fb99842830869dd16dbb60929",
          "transactionIndex": "0x35",
          "logIndex": "0x98",
          "removed": false
        },
        {
          "address": "0xd697D2af3ddfe4Ed24e92A230C4B93606B5d05fB",
          "topics": [
            "0xe46f222dc28076f4f19a6286c1310e5ca995851a198499c3d185311b4e87ab68",
            "0x0000000000000000000000002791eb5807d69fe10c02eed6b4dc12bac0701744",
            "0x0000000000000000000000007f39c581f595b53c5cb19bd0b3f8da6c935e2ca0"
          ],
          "data": "0x",
          "blockHash": "0x640d180255a923e820c277574f7cd541ea8ce0b86f6bc5310860ddf59790d602",
          "blockNumber": "0x11ad6f4",
          "transactionHash": "0xcda6adb63784462ae65e7d0bc46ab8696721008fb99842830869dd16dbb60929",
          "transactionIndex": "0x35",
          "logIndex": "0x99",
          "removed": false
        },
        {
          "address": "0xd697D2af3ddfe4Ed24e92A230C4B93606B5d05fB",
          "topics": [
            "0x67e1d668ec79170f9b4759aa0b1bb6d92edfad37be780bb42a72f572637644b1",
            "0x0000000000000000000000002791eb5807d69fe10c02eed6b4dc12bac0701744"
          ],
          "data": "0x0000000000000000000000000000000000000000000000000000000000000001",
          "blockHash": "0x640d180255a923e820c277574f7cd541ea8ce0b86f6bc5310860ddf59790d602",
          "blockNumber": "0x11ad6f4",
          "transactionHash": "0xcda6adb63784462ae65e7d0bc46ab8696721008fb99842830869dd16dbb60929",
          "transactionIndex": "0x35",
          "logIndex": "0x9a",
          "removed": false
        }
      ],
      "status": "0x1",
      "logsBloom": "0x00000000000000000000000000100000000000000000000000000000000000000000000000000000000000000000000000001010000000000000000000208000000000000000000000000000000000000000000000000010000000000000000000000000000000000000000000000000000000000000000001000000000000000000000000010000000080000000000000080008000000000000000000002000020000000000000000000000000000000000000000000000000000000000000001000000000000100000000000000084000000000000000000000000080000000010000000000000001000008000000000000000004000000800000000000000",
      "type": "0x2",
      "effectiveGasPrice": "0xc7bc9f3d7"
    },
    {
      "transactionHash": "0x978ccbb1cd9d3310a3a5dbc411e6672a0168660712fd190d6c5424d16a974405",
      "transactionIndex": "0x36",
      "blockHash": "0x640d180255a923e820c277574f7cd541ea8ce0b86f6bc5310860ddf59790d602",
      "blockNumber": "0x11ad6f4",
      "from": "0x255e26065387de09436DB52AcC4aE2a3CD11E854",
      "to": "0xd697D2af3ddfe4Ed24e92A230C4B93606B5d05fB",
      "cumulativeGasUsed": "0x4a7c06",
      "gasUsed": "0xbac9",
      "contractAddress": null,
      "logs": [
        {
          "address": "0xd697D2af3ddfe4Ed24e92A230C4B93606B5d05fB",
          "topics": [
            "0x38d16b8cac22d99fc7c124b9cd0de2d3fa1faef420bfe791d8c362d765e22700",
            "0x000000000000000000000000255e26065387de09436db52acc4ae2a3cd11e854",
            "0x00000000000000000000000032b0acfbb18c270491cdd124eb104a8d25a182ca"
          ],
          "data": "0x",
          "blockHash": "0x640d180255a923e820c277574f7cd541ea8ce0b86f6bc5310860ddf59790d602",
          "blockNumber": "0x11ad6f4",
          "transactionHash": "0x978ccbb1cd9d3310a3a5dbc411e6672a0168660712fd190d6c5424d16a974405",
          "transactionIndex": "0x36",
          "logIndex": "0x9b",
          "removed": false
        }
      ],
      "status": "0x1",
      "logsBloom": "0x00000000000020000000080000100000000000000000000000000000000000000000000000000000000000000000000000000010000000000000000000000000000000000000000000000000000000004000000000000000000000000000000000000000000000000000000000000000000800000000000000000000000000000000000000000000000080000000000000080000000000000000000000000000000000000000020000000000000000000000000000000000000000000020000000002000000000000000000000000000000000000000000000000000000000000000000000000000080000000000000000000000000000000000000000000000",
      "type": "0x2",
      "effectiveGasPrice": "0xc7bc9f3d7"
    }
  ],
  "libraries": [],
  "pending": [],
  "returns": {},
  "timestamp": 1699554522,
  "chain": 1,
  "multi": false,
  "commit": "00f26c1"
}