{
  "transactions": [
    {
      "hash": "0xf38e5e8197aa1283686ce1ee81883cad2ff3202e8b80e86eecf3a45072f7fa61",
      "transactionType": "CALL",
      "contractName": null,
      "contractAddress": "0xd697D2af3ddfe4Ed24e92A230C4B93606B5d05fB",
      "function": null,
      "arguments": null,
      "transaction": {
        "type": "0x02",
        "from": "0x255e26065387de09436db52acc4ae2a3cd11e854",
        "to": "0xd697d2af3ddfe4ed24e92a230c4b93606b5d05fb",
        "gas": "0x8acc",
        "value": "0x0",
        "data": "0x01fa5d560000000000000000000000001111111254eeb25477b68fb85ed929f73a960582",
        "nonce": "0xc",
        "accessList": []
      },
      "additionalContracts": [],
      "isFixedGasLimit": false
    },
    {
      "hash": "0xd4ec45aa15eb9f2f36bdf48107c898fcd3e618816c0112f2830d08382cbc6007",
      "transactionType": "CALL",
      "contractName": null,
      "contractAddress": "0xd697D2af3ddfe4Ed24e92A230C4B93606B5d05fB",
      "function": null,
      "arguments": null,
      "transaction": {
        "type": "0x02",
        "from": "0x255e26065387de09436db52acc4ae2a3cd11e854",
        "to": "0xd697d2af3ddfe4ed24e92a230c4b93606b5d05fb",
        "gas": "0xb969",
        "value": "0x0",
        "data": "0xba72467e0000000000000000000000006b175474e89094c44da98b954eedeac495271d0f0000000000000000000000001111111254eeb25477b68fb85ed929f73a960582",
        "nonce": "0xd",
        "accessList": []
      },
      "additionalContracts": [],
      "isFixedGasLimit": false
    },
    {
      "hash": "0x5f1d3522720fd4ffe1dcf992074c0d990cc2666dd1e88ddc27dc2356e7a1ad5e",
      "transactionType": "CALL",
      "contractName": null,
      "contractAddress": "0xd697D2af3ddfe4Ed24e92A230C4B93606B5d05fB",
      "function": null,
      "arguments": null,
      "transaction": {
        "type": "0x02",
        "from": "0x255e26065387de09436db52acc4ae2a3cd11e854",
        "to": "0xd697d2af3ddfe4ed24e92a230c4b93606b5d05fb",
        "gas": "0x11376",
        "value": "0x0",
        "data": "0xba72467e000000000000000000000000a0b86991c6218b36c1d19d4a2e9eb0ce3606eb480000000000000000000000001111111254eeb25477b68fb85ed929f73a960582",
        "nonce": "0xe",
        "accessList": []
      },
      "additionalContracts": [],
      "isFixedGasLimit": false
    },
    {
      "hash": "0x97d59903e4cdc1dd02a21090785a88831aee73fb3aa8a2cf83f109238cccdb42",
      "transactionType": "CALL",
      "contractName": null,
      "contractAddress": "0xd697D2af3ddfe4Ed24e92A230C4B93606B5d05fB",
      "function": null,
      "arguments": null,
      "transaction": {
        "type": "0x02",
        "from": "0x255e26065387de09436db52acc4ae2a3cd11e854",
        "to": "0xd697d2af3ddfe4ed24e92a230c4b93606b5d05fb",
        "gas": "0xfb3d",
        "value": "0x0",
        "data": "0xba72467e000000000000000000000000dac17f958d2ee523a2206206994597c13d831ec70000000000000000000000001111111254eeb25477b68fb85ed929f73a960582",
        "nonce": "0xf",
        "accessList": []
      },
      "additionalContracts": [],
      "isFixedGasLimit": false
    },
    {
      "hash": "0xf5e5ee25454d7f186c3dbe47ab15ec3e315c1b633c14c0671a3310bdbdcfdc99",
      "transactionType": "CALL",
      "contractName": null,
      "contractAddress": "0xd697D2af3ddfe4Ed24e92A230C4B93606B5d05fB",
      "function": null,
      "arguments": null,
      "transaction": {
        "type": "0x02",
        "from": "0x255e26065387de09436db52acc4ae2a3cd11e854",
        "to": "0xd697d2af3ddfe4ed24e92a230c4b93606b5d05fb",
        "gas": "0xb8e7",
        "value": "0x0",
        "data": "0xba72467e000000000000000000000000c02aaa39b223fe8d0a0e5c4f27ead9083c756cc20000000000000000000000001111111254eeb25477b68fb85ed929f73a960582",
        "nonce": "0x10",
        "accessList": []
      },
      "additionalContracts": [],
      "isFixedGasLimit": false
    },
    {
      "hash": "0x81154bd6e1f1448313ecedf0d4dd15ad37898857a0d63813ae174ae8d5036380",
      "transactionType": "CALL",
      "contractName": null,
      "contractAddress": "0xd697D2af3ddfe4Ed24e92A230C4B93606B5d05fB",
      "function": null,
      "arguments": null,
      "transaction": {
        "type": "0x02",
        "from": "0x255e26065387de09436db52acc4ae2a3cd11e854",
        "to": "0xd697d2af3ddfe4ed24e92a230c4b93606b5d05fb",
        "gas": "0x1a349",
        "value": "0x0",
        "data": "0xba72467e000000000000000000000000ae7ab96520de3a18e5e111b5eaab095312d7fe840000000000000000000000001111111254eeb25477b68fb85ed929f73a960582",
        "nonce": "0x11",
        "accessList": []
      },
      "additionalContracts": [],
      "isFixedGasLimit": false
    },
    {
      "hash": "0xbe7426c89d3aa63563cf985749a913156ea7f21544dfdb7cf6749f3b43d2242c",
      "transactionType": "CALL",
      "contractName": null,
      "contractAddress": "0xd697D2af3ddfe4Ed24e92A230C4B93606B5d05fB",
      "function": null,
      "arguments": null,
      "transaction": {
        "type": "0x02",
        "from": "0x255e26065387de09436db52acc4ae2a3cd11e854",
        "to": "0xd697d2af3ddfe4ed24e92a230c4b93606b5d05fb",
        "gas": "0x142a2",
        "value": "0x0",
        "data": "0xba72467e0000000000000000000000002260fac5e5542a773aa44fbcfedf7c193bc2c5990000000000000000000000001111111254eeb25477b68fb85ed929f73a960582",
        "nonce": "0x12",
        "accessList": []
      },
      "additionalContracts": [],
      "isFixedGasLimit": false
    },
    {
      "hash": "0xcda6adb63784462ae65e7d0bc46ab8696721008fb99842830869dd16dbb60929",
      "transactionType": "CALL",
      "contractName": null,
      "contractAddress": "0xd697D2af3ddfe4Ed24e92A230C4B93606B5d05fB",
      "function": null,
      "arguments": null,
      "transaction": {
        "type": "0x02",
        "from": "0x255e26065387de09436db52acc4ae2a3cd11e854",
        "to": "0xd697d2af3ddfe4ed24e92a230c4b93606b5d05fb",
        "gas": "0x1b8db",
        "value": "0x0",
        "data": "0x063e5eb70000000000000000000000002791eb5807d69fe10c02eed6b4dc12bac0701744",
        "nonce": "0x13",
        "accessList": []
      },
      "additionalContracts": [],
      "isFixedGasLimit": false
    },
    {
      "hash": "0x978ccbb1cd9d3310a3a5dbc411e6672a0168660712fd190d6c5424d16a974405",
      "transactionType": "CALL",
      "contractName": null,
      "contractAddress": "0xd697D2af3ddfe4Ed24e92A230C4B93606B5d05fB",
      "function": "transferOwnership(address)",
      "arguments": [
        "0x32B0aCfBb18C270491CDD124EB104A8d25A182ca"
      ],
      "transaction": {
        "type": "0x02",
        "from": "0x255e26065387de09436db52acc4ae2a3cd11e854",
        "to": "0xd697d2af3ddfe4ed24e92a230c4b93606b5d05fb",
        "gas": "0x1112c",
        "value": "0x0",
        "data": "0xf2fde38b00000000000000000000000032b0acfbb18c270491cdd124eb104a8d25a182ca",
        "nonce": "0x14",
        "accessList": []
      },
      "additionalContracts": [],
      "isFixedGasLimit": false
    }
  ],
  "receipts": [],
  "libraries": [],
  "pending": [
    "0xf38e5e8197aa1283686ce1ee81883cad2ff3202e8b80e86eecf3a45072f7fa61",
    "0xd4ec45aa15eb9f2f36bdf48107c898fcd3e618816c0112f2830d08382cbc6007",
    "0x5f1d3522720fd4ffe1dcf992074c0d990cc2666dd1e88ddc27dc2356e7a1ad5e",
    "0x97d59903e4cdc1dd02a21090785a88831aee73fb3aa8a2cf83f109238cccdb42",
    "0xf5e5ee25454d7f186c3dbe47ab15ec3e315c1b633c14c0671a3310bdbdcfdc99",
    "0x81154bd6e1f1448313ecedf0d4dd15ad37898857a0d63813ae174ae8d5036380",
    "0xbe7426c89d3aa63563cf985749a913156ea7f21544dfdb7cf6749f3b43d2242c",
    "0xcda6adb63784462ae65e7d0bc46ab8696721008fb99842830869dd16dbb60929",
    "0x978ccbb1cd9d3310a3a5dbc411e6672a0168660712fd190d6c5424d16a974405"
  ],
  "returns": {},
  "timestamp": 1699554508,
  "chain": 1,
  "multi": false,
  "commit": "00f26c1"
}